{
  "contractName": "EfficientAirdrop",
  "abi": [
    {
      "constant": true,
      "inputs": [],
      "name": "merkleRoot",
      "outputs": [
        {
          "name": "",
          "type": "bytes32"
        }
      ],
      "payable": false,
      "stateMutability": "view",
      "type": "function"
    },
    {
      "constant": false,
      "inputs": [],
      "name": "renounceOwnership",
      "outputs": [],
      "payable": false,
      "stateMutability": "nonpayable",
      "type": "function"
    },
    {
      "constant": true,
      "inputs": [],
      "name": "owner",
      "outputs": [
        {
          "name": "",
          "type": "address"
        }
      ],
      "payable": false,
      "stateMutability": "view",
      "type": "function"
    },
    {
      "constant": false,
      "inputs": [
        {
          "name": "_newOwner",
          "type": "address"
        }
      ],
      "name": "transferOwnership",
      "outputs": [],
      "payable": false,
      "stateMutability": "nonpayable",
      "type": "function"
    },
    {
      "inputs": [
        {
          "name": "_tokenContract",
          "type": "address"
        },
        {
          "name": "_merkleRoot",
          "type": "bytes32"
        }
      ],
      "payable": false,
      "stateMutability": "nonpayable",
      "type": "constructor"
    },
    {
      "anonymous": false,
      "inputs": [
        {
          "indexed": false,
          "name": "addr",
          "type": "address"
        },
        {
          "indexed": false,
          "name": "num",
          "type": "uint256"
        }
      ],
      "name": "AirdropTransfer",
      "type": "event"
    },
    {
      "anonymous": false,
      "inputs": [
        {
          "indexed": true,
          "name": "previousOwner",
          "type": "address"
        }
      ],
      "name": "OwnershipRenounced",
      "type": "event"
    },
    {
      "anonymous": false,
      "inputs": [
        {
          "indexed": true,
          "name": "previousOwner",
          "type": "address"
        },
        {
          "indexed": true,
          "name": "newOwner",
          "type": "address"
        }
      ],
      "name": "OwnershipTransferred",
      "type": "event"
    },
    {
      "constant": false,
      "inputs": [
        {
          "name": "_merkleRoot",
          "type": "bytes32"
        }
      ],
      "name": "setRoot",
      "outputs": [],
      "payable": false,
      "stateMutability": "nonpayable",
      "type": "function"
    },
    {
      "constant": false,
      "inputs": [
        {
          "name": "_proof",
          "type": "bytes32[]"
        },
        {
          "name": "_who",
          "type": "address"
        },
        {
          "name": "_amount",
          "type": "uint256"
        }
      ],
      "name": "getTokensByMerkleProof",
      "outputs": [
        {
          "name": "",
          "type": "bool"
        }
      ],
      "payable": false,
      "stateMutability": "nonpayable",
      "type": "function"
    },
    {
      "constant": true,
      "inputs": [],
      "name": "getMerkleRoot",
      "outputs": [
        {
          "name": "",
          "type": "bytes32"
        }
      ],
      "payable": false,
      "stateMutability": "view",
      "type": "function"
    }
  ],
  "bytecode": "0x6060604052341561000f57600080fd5b604051604080610aad83398101604052808051906020019091908051906020019091905050336000806101000a81548173ffffffffffffffffffffffffffffffffffffffff021916908373ffffffffffffffffffffffffffffffffffffffff16021790555033600160006101000a81548173ffffffffffffffffffffffffffffffffffffffff021916908373ffffffffffffffffffffffffffffffffffffffff16021790555081600360006101000a81548173ffffffffffffffffffffffffffffffffffffffff021916908373ffffffffffffffffffffffffffffffffffffffff1602179055508060028160001916905550505061099b806101126000396000f300606060405260043610610083576000357c0100000000000000000000000000000000000000000000000000000000900463ffffffff1680632eb4a7ab146100885780633215b483146100b95780634959065714610153578063715018a6146101845780638da5cb5b14610199578063dab5f340146101ee578063f2fde38b14610215575b600080fd5b341561009357600080fd5b61009b61024e565b60405180826000191660001916815260200191505060405180910390f35b34156100c457600080fd5b61013960048080359060200190820180359060200190808060200260200160405190810160405280939291908181526020018383602002808284378201915050505050509190803573ffffffffffffffffffffffffffffffffffffffff16906020019091908035906020019091905050610254565b604051808215151515815260200191505060405180910390f35b341561015e57600080fd5b6101666105a8565b60405180826000191660001916815260200191505060405180910390f35b341561018f57600080fd5b6101976105b2565b005b34156101a457600080fd5b6101ac6106b4565b604051808273ffffffffffffffffffffffffffffffffffffffff1673ffffffffffffffffffffffffffffffffffffffff16815260200191505060405180910390f35b34156101f957600080fd5b6102136004808035600019169060200190919050506106d9565b005b341561022057600080fd5b61024c600480803573ffffffffffffffffffffffffffffffffffffffff16906020019091905050610742565b005b60025481565b60008060011515600460008673ffffffffffffffffffffffffffffffffffffffff1673ffffffffffffffffffffffffffffffffffffffff16815260200190815260200160002060009054906101000a900460ff161515141515156102b757600080fd5b6000831115156102c657600080fd5b6102d084846107a9565b905073__MerkleUtils___________________________6372a5285186836002546000604051602001526040518463ffffffff167c0100000000000000000000000000000000000000000000000000000000028152600401808060200184600019166000191681526020018360001916600019168152602001828103825285818151815260200191508051906020019060200280838360005b83811015610384578082015181840152602081019050610369565b5050505090500194505050505060206040518083038186803b15156103a857600080fd5b6102c65a03f415156103b957600080fd5b5050506040518051905015156103d257600091506105a0565b6001600460008673ffffffffffffffffffffffffffffffffffffffff1673ffffffffffffffffffffffffffffffffffffffff16815260200190815260200160002060006101000a81548160ff02191690831515021790555060011515600360009054906101000a900473ffffffffffffffffffffffffffffffffffffffff1673ffffffffffffffffffffffffffffffffffffffff1663a9059cbb86866000604051602001526040518363ffffffff167c0100000000000000000000000000000000000000000000000000000000028152600401808373ffffffffffffffffffffffffffffffffffffffff1673ffffffffffffffffffffffffffffffffffffffff16815260200182815260200192505050602060405180830381600087803b15156104fb57600080fd5b6102c65a03f1151561050c57600080fd5b5050506040518051905015151415610592577f100b8658c21fe4c10650c23cfd2c97c97ac86370102510563d824216683256a58484604051808373ffffffffffffffffffffffffffffffffffffffff1673ffffffffffffffffffffffffffffffffffffffff1681526020018281526020019250505060405180910390a1600191506105a0565b6000151561059f57600080fd5b5b509392505050565b6000600254905090565b6000809054906101000a900473ffffffffffffffffffffffffffffffffffffffff1673ffffffffffffffffffffffffffffffffffffffff163373ffffffffffffffffffffffffffffffffffffffff1614151561060d57600080fd5b6000809054906101000a900473ffffffffffffffffffffffffffffffffffffffff1673ffffffffffffffffffffffffffffffffffffffff167ff8df31144d9c2f0f6b59d69b8b98abd5459d07f2742c4df920b25aae33c6482060405160405180910390a260008060006101000a81548173ffffffffffffffffffffffffffffffffffffffff021916908373ffffffffffffffffffffffffffffffffffffffff160217905550565b6000809054906101000a900473ffffffffffffffffffffffffffffffffffffffff1681565b6000809054906101000a900473ffffffffffffffffffffffffffffffffffffffff1673ffffffffffffffffffffffffffffffffffffffff163373ffffffffffffffffffffffffffffffffffffffff1614151561073457600080fd5b806002816000191690555050565b6000809054906101000a900473ffffffffffffffffffffffffffffffffffffffff1673ffffffffffffffffffffffffffffffffffffffff163373ffffffffffffffffffffffffffffffffffffffff1614151561079d57600080fd5b6107a681610875565b50565b600073__MerkleUtils___________________________633fe3df7684846000604051602001526040518363ffffffff167c0100000000000000000000000000000000000000000000000000000000028152600401808373ffffffffffffffffffffffffffffffffffffffff1673ffffffffffffffffffffffffffffffffffffffff1681526020018281526020019250505060206040518083038186803b151561085257600080fd5b6102c65a03f4151561086357600080fd5b50505060405180519050905092915050565b600073ffffffffffffffffffffffffffffffffffffffff168173ffffffffffffffffffffffffffffffffffffffff16141515156108b157600080fd5b8073ffffffffffffffffffffffffffffffffffffffff166000809054906101000a900473ffffffffffffffffffffffffffffffffffffffff1673ffffffffffffffffffffffffffffffffffffffff167f8be0079c531659141344cd1fd0a4f28419497f9722a3daafe3b4186f6b6457e060405160405180910390a3806000806101000a81548173ffffffffffffffffffffffffffffffffffffffff021916908373ffffffffffffffffffffffffffffffffffffffff160217905550505600a165627a7a72305820f7aab7756f78371001902c7daade140f7a03878561acd2825f8efec9fae359f40029",
  "source": "pragma solidity 0.4.19;\n\nimport \"contracts/zeppelin/ERC20/MintableToken.sol\";\nimport \"contracts/interfaces/IEfficientAirdrop.sol\";\nimport \"contracts/utils/MerkleUtils.sol\";\n\ncontract EfficientAirdrop is IEfficientAirdrop {\n\n    address owner;\n    bytes32 public merkleRoot;\n\n    MintableToken tokenContract;\n\n    mapping (address => bool) spent;\n\n    function EfficientAirdrop(address _tokenContract, bytes32 _merkleRoot) public {\n\n        owner = msg.sender;\n        tokenContract = MintableToken(_tokenContract);\n        merkleRoot = _merkleRoot;\n\n    }\n\n    function setRoot(bytes32 _merkleRoot) public onlyOwner {\n\n        merkleRoot = _merkleRoot;\n\n    }\n\n    function leaf_from_address_and_num_tokens(address _a, uint256 _n) internal pure returns (bytes32) {\n        \n        return MerkleUtils.leaf_from_address_and_num_tokens(_a, _n);\n\n    }\n\n\n    function getTokensByMerkleProof(bytes32[] _proof, address _who, uint256 _amount) public returns (bool) {\n        \n        require(spent[_who] != true);\n        require(_amount > 0);\n\n        bytes32 leaf = leaf_from_address_and_num_tokens(_who, _amount);\n\n        if ( !MerkleUtils.checkProof(_proof, leaf, merkleRoot) ) {\n            return false;\n        }\n\n        spent[_who] = true;\n\n        if (tokenContract.transfer(_who, _amount) == true) {\n\n            AirdropTransfer(_who, _amount);\n            return true;\n\n        }\n\t\n        require(false);\n\n    }\n\n    function getMerkleRoot() public view returns (bytes32) {\n\n        return merkleRoot;\n\n    }\n\n}\n",
  "sourcePath": "/home/stefan/Work/SolidityProjects/EfficientAirdrop/contracts/EfficientAirdrop.sol",
  "compiler": {
    "name": "solc",
    "version": "0.4.19+commit.c4cbbb05.Emscripten.clang"
  },
  "schemaVersion": "2.0.0",
  "updatedAt": "2018-08-22T13:01:37.742Z"
}