{
  "contractName": "MerkleUtils",
  "abi": [
    {
      "constant": true,
      "inputs": [
        {
          "name": "who",
          "type": "address"
        },
        {
          "name": "_n",
          "type": "uint256"
        }
      ],
      "name": "leaf_from_address_and_num_tokens",
      "outputs": [
        {
          "name": "",
          "type": "bytes32"
        }
      ],
      "payable": false,
      "stateMutability": "pure",
      "type": "function"
    },
    {
      "constant": true,
      "inputs": [
        {
          "name": "proof",
          "type": "bytes32[]"
        },
        {
          "name": "_hash",
          "type": "bytes32"
        },
        {
          "name": "merkleRoot",
          "type": "bytes32"
        }
      ],
      "name": "checkProof",
      "outputs": [
        {
          "name": "",
          "type": "bool"
        }
      ],
      "payable": false,
      "stateMutability": "view",
      "type": "function"
    },
    {
      "constant": true,
      "inputs": [
        {
          "name": "x",
          "type": "address"
        }
      ],
      "name": "addressToAsciiString",
      "outputs": [
        {
          "name": "",
          "type": "string"
        }
      ],
      "payable": false,
      "stateMutability": "pure",
      "type": "function"
    },
    {
      "constant": true,
      "inputs": [
        {
          "name": "someInt",
          "type": "uint256"
        }
      ],
      "name": "uintToStr",
      "outputs": [
        {
          "name": "",
          "type": "string"
        }
      ],
      "payable": false,
      "stateMutability": "pure",
      "type": "function"
    },
    {
      "constant": true,
      "inputs": [
        {
          "name": "b",
          "type": "bytes1"
        }
      ],
      "name": "char",
      "outputs": [
        {
          "name": "c",
          "type": "bytes1"
        }
      ],
      "payable": false,
      "stateMutability": "pure",
      "type": "function"
    }
  ],
  "bytecode": "0x6060604052341561000f57600080fd5b610ce08061001e6000396000f30060606040526004361061006d576000357c0100000000000000000000000000000000000000000000000000000000900463ffffffff1680633fe3df761461007257806369f9ad2f146100c557806372a5285114610157578063a9ead91c146101d8578063fc966d451461027f575b600080fd5b6100a7600480803573ffffffffffffffffffffffffffffffffffffffff16906020019091908035906020019091905050610310565b60405180826000191660001916815260200191505060405180910390f35b6100fd60048080357effffffffffffffffffffffffffffffffffffffffffffffffffffffffffffff191690602001909190505061076c565b60405180827effffffffffffffffffffffffffffffffffffffffffffffffffffffffffffff19167effffffffffffffffffffffffffffffffffffffffffffffffffffffffffffff1916815260200191505060405180910390f35b6101be600480803590602001908201803590602001908080602002602001604051908101604052809392919081815260200183836020028082843782019150505050505091908035600019169060200190919080356000191690602001909190505061085c565b604051808215151515815260200191505060405180910390f35b610204600480803573ffffffffffffffffffffffffffffffffffffffff16906020019091905050610929565b6040518080602001828103825283818151815260200191508051906020019080838360005b83811015610244578082015181840152602081019050610229565b50505050905090810190601f1680156102715780820380516001836020036101000a031916815260200191505b509250505060405180910390f35b6102956004808035906020019091905050610b3a565b6040518080602001828103825283818151815260200191508051906020019080838360005b838110156102d55780820151818401526020810190506102ba565b50505050905090810190601f1680156103025780820380516001836020036101000a031916815260200191505b509250505060405180910390f35b600061031a610c8c565b610322610c8c565b61032a610ca0565b610332610ca0565b61033a610ca0565b610342610ca0565b61034a610c8c565b610352610ca0565b6000806040805190810160405280600281526020017f307800000000000000000000000000000000000000000000000000000000000081525099506040805190810160405280600181526020017f200000000000000000000000000000000000000000000000000000000000000081525098508997506103d18d610929565b96508895506103df8c610b3a565b94508451865188518a510101016040518059106103f95750595b9080825280601f01601f1916602001820160405250935083925060009150600090505b87518110156104cf57878181518110151561043357fe5b9060200101517f010000000000000000000000000000000000000000000000000000000000000090047f010000000000000000000000000000000000000000000000000000000000000002838380600101945081518110151561049257fe5b9060200101907effffffffffffffffffffffffffffffffffffffffffffffffffffffffffffff1916908160001a905350808060010191505061041c565b600090505b86518110156105875786818151811015156104eb57fe5b9060200101517f010000000000000000000000000000000000000000000000000000000000000090047f010000000000000000000000000000000000000000000000000000000000000002838380600101945081518110151561054a57fe5b9060200101907effffffffffffffffffffffffffffffffffffffffffffffffffffffffffffff1916908160001a90535080806001019150506104d4565b600090505b855181101561063f5785818151811015156105a357fe5b9060200101517f010000000000000000000000000000000000000000000000000000000000000090047f010000000000000000000000000000000000000000000000000000000000000002838380600101945081518110151561060257fe5b9060200101907effffffffffffffffffffffffffffffffffffffffffffffffffffffffffffff1916908160001a905350808060010191505061058c565b600090505b84518110156106f757848181518110151561065b57fe5b9060200101517f010000000000000000000000000000000000000000000000000000000000000090047f01000000000000000000000000000000000000000000000000000000000000000283838060010194508151811015156106ba57fe5b9060200101907effffffffffffffffffffffffffffffffffffffffffffffffffffffffffffff1916908160001a9053508080600101915050610644565b836040518082805190602001908083835b60208310151561072d5780518252602082019150602081019050602083039250610708565b6001836020036101000a03801982511681845116808217855250505050505090500191505060405180910390209a505050505050505050505092915050565b6000600a7f010000000000000000000000000000000000000000000000000000000000000002827effffffffffffffffffffffffffffffffffffffffffffffffffffffffffffff1916101561080b576030827f01000000000000000000000000000000000000000000000000000000000000009004017f0100000000000000000000000000000000000000000000000000000000000000029050610857565b6057827f01000000000000000000000000000000000000000000000000000000000000009004017f01000000000000000000000000000000000000000000000000000000000000000290505b919050565b600080600080859150600090505b60018751038111151561091257868181518110151561088557fe5b9060200190602002015192508260001916826000191610156108d657818360405180836000191660001916815260200182600019166000191681526020019250505060405180910390209150610907565b8282604051808360001916600019168152602001826000191660001916815260200192505050604051809103902091505b60018101905061086a565b846000191682600019161493505050509392505050565b610931610c8c565b610939610ca0565b600080600080602860405180591061094e5750595b9080825280601f01601f19166020018201604052509450600093505b6014841015610b2d578360130360080260020a8773ffffffffffffffffffffffffffffffffffffffff1681151561099d57fe5b047f01000000000000000000000000000000000000000000000000000000000000000292506010837f0100000000000000000000000000000000000000000000000000000000000000900460ff168115156109f457fe5b047f0100000000000000000000000000000000000000000000000000000000000000029150817f01000000000000000000000000000000000000000000000000000000000000009004601002837f01000000000000000000000000000000000000000000000000000000000000009004037f0100000000000000000000000000000000000000000000000000000000000000029050610a928261076c565b8585600202815181101515610aa357fe5b9060200101907effffffffffffffffffffffffffffffffffffffffffffffffffffffffffffff1916908160001a905350610adc8161076c565b8560018660020201815181101515610af057fe5b9060200101907effffffffffffffffffffffffffffffffffffffffffffffffffffffffffffff1916908160001a905350838060010194505061096a565b8495505050505050919050565b610b42610c8c565b600080610b4d610ca0565b600080861415610b94576040805190810160405280600181526020017f30000000000000000000000000000000000000000000000000000000000000008152509450610c83565b8593505b600084141515610bbe578280600101935050600a84811515610bb657fe5b049350610b98565b82604051805910610bcc5750595b9080825280601f01601f191660200182016040525091506001830390505b600086141515610c7f57600a86811515610c0057fe5b066030017f010000000000000000000000000000000000000000000000000000000000000002828280600190039350815181101515610c3b57fe5b9060200101907effffffffffffffffffffffffffffffffffffffffffffffffffffffffffffff1916908160001a905350600a86811515610c7757fe5b049550610bea565b8194505b50505050919050565b602060405190810160405280600081525090565b6020604051908101604052806000815250905600a165627a7a72305820c98acc4e200238a1fa32406468b8d71c83aaa2709c17fffe52ee8342de9ddd690029",
  "source": "pragma solidity 0.4.19;\n\n\n/**\n * @title MerkleUtils\n * @dev Operations with merkle trees\n */\nlibrary MerkleUtils {\n\n    function leaf_from_address_and_num_tokens(address who, uint256 _n) public pure returns (bytes32) {\n        \n        string memory prefix = \"0x\";\n        string memory s = \" \";\n        \n        bytes memory pref = bytes(prefix);\n        bytes memory toAscii = bytes(addressToAsciiString(who));\n        bytes memory space = bytes(s);\n        bytes memory strTokens = bytes(uintToStr(_n));\n\n        string memory fullLeaf = new string(pref.length + toAscii.length + space.length + strTokens.length);\n        bytes memory checkedLeaf = bytes(fullLeaf);\n\n        uint k = 0;\n\n        for (uint i = 0; i < pref.length; i++) \n            {checkedLeaf[k++] = pref[i];}\n\n        for (i = 0; i < toAscii.length; i++) \n            {checkedLeaf[k++] = toAscii[i];}\n\n        for (i = 0; i < space.length; i++) \n            {checkedLeaf[k++] = space[i];}\n\n        for (i = 0; i < strTokens.length; i++) \n            {checkedLeaf[k++] = strTokens[i];}\n\n        return bytes32(keccak256(fullLeaf));\n\n    }\n\n    function checkProof(bytes32[] proof, bytes32 _hash, bytes32 merkleRoot) public view returns (bool) {\n\n        bytes32 el;\n        bytes32 h = _hash;\n\n        for (uint i = 0; i <= proof.length - 1; i += 1) {\n            el = proof[i];\n\n            if (h < el) {\n                h = keccak256(h, el);\n            } else {\n                h = keccak256(el, h);\n            }\n        }\n\n        return h == merkleRoot;\n\n    }\n\n    function addressToAsciiString(address x) public pure returns (string) {\n\n        bytes memory s = new bytes(40);\n\n        for (uint i = 0; i < 20; i++) {\n\n            byte b = byte(uint8(uint(x) / (2**(8*(19 - i)))));\n            byte hi = byte(uint8(b) / 16);\n            byte lo = byte(uint8(b) - 16 * uint8(hi));\n            s[2*i] = char(hi);\n            s[2*i+1] = char(lo);\n\n        }\n\n        return string(s);\n\n    }\n\n     function uintToStr(uint someInt) public pure returns (string){\n\n        if (someInt == 0) return \"0\";\n\n        uint auxInt = someInt;\n\n        uint length;\n\n        while (auxInt != 0){\n\n            length++;\n            auxInt /= 10;\n\n        }\n\n        bytes memory preparedInt = new bytes(length);\n        uint k = length - 1;\n\n        while (someInt != 0){\n\n            preparedInt[k--] = byte(48 + someInt % 10);\n            someInt /= 10;\n\n        }\n\n        return string(preparedInt);\n\n    }\n\n    function char(byte b) public pure returns (byte c) {\n\n        if (b < 10) return byte(uint8(b) + 0x30);\n        else return byte(uint8(b) + 0x57);\n\n    }\n\n\n}",
  "sourcePath": "contracts/utils/MerkleUtils.sol",
  "compiler": {
    "name": "solc",
    "version": "0.4.19+commit.c4cbbb05.Emscripten.clang"
  },
  "schemaVersion": "2.0.0",
  "updatedAt": "2018-08-21T14:08:20.532Z"
}